{
  "address": "0xCf7Ed3AccA5a467e9e704C703E8D87F634fB0Fc9",
  "abi": [
    {
      "anonymous": false,
      "inputs": [
        {
          "indexed": true,
          "internalType": "uint256",
          "name": "newValue",
          "type": "uint256"
        }
      ],
      "name": "valueUpdated",
      "type": "event"
    },
    {
      "inputs": [],
      "name": "getVersion",
      "outputs": [
        {
          "internalType": "uint256",
          "name": "",
          "type": "uint256"
        }
      ],
      "stateMutability": "pure",
      "type": "function"
    },
    {
      "inputs": [],
      "name": "increment",
      "outputs": [],
      "stateMutability": "nonpayable",
      "type": "function"
    },
    {
      "inputs": [],
      "name": "retrive",
      "outputs": [
        {
          "internalType": "uint256",
          "name": "",
          "type": "uint256"
        }
      ],
      "stateMutability": "view",
      "type": "function"
    },
    {
      "inputs": [
        {
          "internalType": "uint256",
          "name": "newValue",
          "type": "uint256"
        }
      ],
      "name": "setValue",
      "outputs": [],
      "stateMutability": "nonpayable",
      "type": "function"
    }
  ],
  "transactionHash": "0xfa2506e4ebf6cb9410a07d95fce88ca8f9109b7dcd27b8deba6785ff9fbe1df2",
  "args": [],
  "numDeployments": 1,
  "solcInputHash": "e69f5683ca00aea4f6c80e6fc760d19b",
  "bytecode": "0x608060405234801561001057600080fd5b50610282806100206000396000f3fe608060405234801561001057600080fd5b506004361061004c5760003560e01c80630d8e6e2c14610051578063552410771461006f578063a6b7fc5b1461008b578063d09de08a146100a9575b600080fd5b6100596100b3565b604051610066919061015b565b60405180910390f35b610089600480360381019061008491906101a7565b6100bc565b005b6100936100f3565b6040516100a0919061015b565b60405180910390f35b6100b16100fc565b005b60006002905090565b80600081905550807f28e761c751614af8deab2b98800d8d869953498d368bc51ed78030aee3d1383560405160405180910390a250565b60008054905090565b600080815461010a90610203565b919050819055506000547f28e761c751614af8deab2b98800d8d869953498d368bc51ed78030aee3d1383560405160405180910390a2565b6000819050919050565b61015581610142565b82525050565b6000602082019050610170600083018461014c565b92915050565b600080fd5b61018481610142565b811461018f57600080fd5b50565b6000813590506101a18161017b565b92915050565b6000602082840312156101bd576101bc610176565b5b60006101cb84828501610192565b91505092915050565b7f4e487b7100000000000000000000000000000000000000000000000000000000600052601160045260246000fd5b600061020e82610142565b91507fffffffffffffffffffffffffffffffffffffffffffffffffffffffffffffffff821415610241576102406101d4565b5b60018201905091905056fea26469706673582212207ada69d458651b5f32f20c445fb44b4bf1e25e2497f72e380c96cb5e2c8b39c564736f6c63430008090033",
  "devdoc": {
    "kind": "dev",
    "methods": {},
    "version": 1
  },
  "userdoc": {
    "kind": "user",
    "methods": {},
    "version": 1
  },
  "storageLayout": {
    "storage": [
      {
        "astId": 1246,
        "contract": "contracts/BoxV2.sol:BoxV2",
        "label": "s_value",
        "offset": 0,
        "slot": "0",
        "type": "t_uint256"
      }
    ],
    "types": {
      "t_uint256": {
        "encoding": "inplace",
        "label": "uint256",
        "numberOfBytes": "32"
      }
    }
  }
}